:100C5800507265737320737461727420746F0069C5
:100C68006E6974696174650057454C434F4D452161
:100C780021004341535420594F555220564F544553
:100C88000050303100503032005030330050303492
:100C980000566F7465642063616E6469646174658D
:100CA800005468616E6B20796F75210057494E5367
:100CB80000636C617368206265747765656E0050C7
:100CC8003031200050303220005030332000503076
:030CD800342000C5
:070F1C00020D0000010C00B2
:100A7F00E4F5B0F5A0C294C293C292C291F515F5F8
:100A8F0016F513F514F511F512F50FF510C296C200
:100A9F0095C290120EE87F81120F047BFF7A0C79BA
:100AAF0058120E807FC3120F047BFF7A0C796712E6
:100ABF000E80209003020BA87F01120F047F841277
:100ACF000F047BFF7A0C7970120E807FC87E0012A4
:100ADF000EB07F01120F047F81120F047BFF7A0C7F
:100AEF00797A120E80120EAC7F01120F04120E7A59
:100AFF00120ED27F84120F047BFF7A0C798D120EA7
:100B0F0080120ED27F88120F047BFF7A0C7991121C
:100B1F000E80120ED27F8C120F047BFF7A0C799508
:100B2F00120E80120DBB7F01120F047F80120F0473
:100B3F007BFF7A0C7999120E807FC5120F04E50C9A
:100B4F00B40103120E7AE50CB402097BFF7A0C791B
:100B5F008D120E80E50CB403097BFF7A0C7991128C
:100B6F000E80E50CB404097BFF7A0C7995120E8088
:100B7F007FC87E00120EB07F01120F047F83120F09
:100B8F00047BFF7A0C79A9120E807F2C7E01120E46
:100B9F00B07F01120F04020AA5309506750D00757E
:100BAF000E01E50E6401450D7008120CDBE4F50D26
:0D0BBF00F50E209603020AC112080080FB0B
:100CDB007F01120F04120E7A120ED27F84120F04B0
:100CEB007BFF7A0C798D120E80120ED27F88120F39
:100CFB00047BFF7A0C7991120E80120ED27F8C122C
:100D0B000F047BFF7A0C7995120E807FC0120F04B3
:100D1B00AF10AE0F120E247FC4120F04AF12AE1120
:100D2B00120E247FC8120F04AF14AE13120E247FC1
:100D3B00CC120F04AF16AE15120E247F2C7E0102BF
:020D4B000EB0E8
:10080000E4F517F518F519F51A7F01120F04120E09
:100810007A120ED27F84120F047BFF7A0C798D122C
:100820000E80120ED27F88120F047BFF7A0C799112
:10083000120E80120ED27F8C120F047BFF7A0C797D
:1008400095120E807FC0120F04AF10AE0F120E244F
:100850007FC4120F04AF12AE11120E247FC8120F04
:1008600004AF14AE13120E247FCC120F04AF16AED9
:1008700015120E24D3E5109518E50F95174006853F
:100880000F17851018D3E5129518E5119517400636
:10089000851117851218D3E5149518E5139517409F
:1008A00006851317851418D3E5169518E5159517C1
:1008B00040068515178516187F907E01120EB0E54B
:1008C0001865107004E517650F7044E5186512701F
:1008D00004E51765116038E51865147004E51765BF
:1008E00013602CE51865167004E517651560201275
:1008F0000EFC7F80120F04120E7A7FC5120F047B4C
:10090000FF7A0C79B4120E807F907E01120EB0E552
:100910001865127004E5176511704AE518651070C6
:1009200004E517650F603EE51865147004E517656A
:10093000136032E51865167004E517651560261218
:100940000EFC7F80120F047BFF7A0C798D120E80D3
:100950007FC5120F047BFF7A0C79B4120E807F9052
:100960007E01120EB0E51865147004E5176513706A
:100970004AE51865127004E5176511603EE51865D3
:10098000107004E517650F6032E51865167004E510
:100990001765156026120EFC7F80120F047BFF7A0C
:1009A0000C7991120E807FC5120F047BFF7A0C79AF
:1009B000B4120E807F907E01120EB0E5186516709D
:1009C00004E5176515704AE51865127004E51765AA
:1009D00011603EE51865107004E517650F6032E59B
:1009E0001865147004E51765136026120EFC7F80ED
:1009F000120F047BFF7A0C7995120E807FC5120FBF
:100A0000047BFF7A0C79B4120E807F907E01120E67
:100A1000B0E51A451970677F01120F047F80120F2D
:100A2000047BFF7A0C79B9120E807FC0120F04E5A7
:100A300018B5100EE517B50F097BFF7A0C79C712B0
:100A40000E80E518B5120EE517B511097BFF7A0C7B
:100A500079CC120E80E518B5140EE517B513097B95
:100A6000FF7A0C79D1120E80E518B5160EE517B590
:0E0A700015097BFF7A0C79D6120E80120EAC9F
:010A7E002255
:040E24008E1B8F1C76
:100E2800E4FBFAAE1BAF1C7C007D0A120D66740849
:100E38002BF8A605AE1BAF1C7C007D0A120D668E32
:100E48001B8F1C0BBB00010AEB64034A70D5751D90
:100E580000751E027408251EF8E62430FF120F10D4
:100E6800E51E151E7002151DC3E51D648094805093
:010E7800E396
:010E79002256
:100DBB002091092092062093033094F4309114056E
:100DCB0010E5107002050F750C01D2B3120EAAC2FA
:100DDB00B7C2B33092140512E51270020511750CEF
:100DEB0002D2B4120EAAC2B7C2B43093140514E5E2
:100DFB001470020513750C03D2B5120EAAC2B7C23A
:100E0B00B53094140516E51670020515750C04D251
:090E1B00B6120EAAC2B7C2B6223B
:060ED000D2B27FF47E01A6
:100ED600E4FDFCC3ED9FEC9E50070DBD00010C80A8
:010EE600F219
:010EE70022E8
:060EAA00D2B77F647E0058
:100EB000E4FDFCC3ED9FEC9E5015E4FBFA0BBB0078
:0F0EC000010ABA04F8BBFBF50DBD00010C80E47C
:010ECF002200
:100EE8007F38120F047F01120F047F0C120F047F4A
:040EF80080020F0461
:080EFC00751900751A017F0150
:0C0F04008FA0C2B1C2B0120ED0C2B22247
:060E7A007BFF7A0C798970
:100E80008B1B8A1C891DAB1BAA1CA91D120D4DFFB3
:100E90006017120F107FD07E07120ED67401251D29
:0A0EA000F51DE4351CF51C80DD2271
:0C0F10008FA0D2B0C2B1120ED0C2B2222B
:03000000020BCC24
:0C0BCC00787FE4F6D8FD75811E020C1342
:100D4D00BB010689828A83E0225002E722BBFE02A4
:090D5D00E32289828A83E49322D7
:100D6600BC000BBE0029EF8DF084FFADF022E4CC71
:100D7600F875F008EF2FFFEE33FEEC33FCEE9DEC3A
:100D8600984005FCEE9DFE0FD5F0E9E4CEFD22ED80
:100D9600F8F5F0EE8420D21CFEADF075F008EF2FCA
:100DA600FFED33FD4007985006D5F0F222C398FDBB
:050DB6000FD5F0EA2258
:100BD800020A7FE493A3F8E493A34003F68001F2AA
:100BE80008DFF48029E493A3F85407240CC8C3331E
:100BF800C4540F4420C8834004F456800146F6DFED
:100C0800E4800B0102040810204080900F1CE47E51
:100C1800019360BCA3FF543F30E509541FFEE493E1
:100C2800A360010ECF54C025E060A840B8E493A3A8
:100C3800FAE493A3F8E493A3C8C582C8CAC583CAD3
:100C4800F0A3C8C582C8CAC583CADFE9DEE780BE8B
:010F230000CD
:00000001FF
